:020000040800F2
:100000004009002079280008852800088928000870
:100010008D2800089128000895280008000000009D
:100020000000000000000000000000009928000807
:100030009D28000800000000A1280008A52800084D
:10004000A9280008AD280008B1280008B528000834
:10005000B9280008BD280008C1280008C5280008E4
:10006000C9280008CD280008D1280008D528000894
:10007000D9280008DD280008E1280008E528000844
:10008000E9280008ED280008F1280008F5280008F4
:10009000F9280008FD2800080129000805290008A2
:1000A000092900080D290008112900081529000850
:1000B000192900081D290008212900082529000800
:1000C000292900082D2900083129000835290008B0
:1000D000392900083D290008412900084529000860
:1000E000492900084D290008512900082DE9F04F41
:1000F00080460FF23060A5B015461E46D0E90023B9
:10010000CDE91223002004910D900DF1500A6FF0FB
:10011000004900E065190020ADF8020012AB4FF075
:10012000FF3229460DF1020001F093F80446012C3C
:1001300004DA2878441EA441E443E40FBDF8020029
:1001400025280CBFA4F1010BA346BBF1010F0EDB68
:100150002F4617F8011B0498C0470028049000F0B0
:10016000F3800D98401CBBF1010B0D90F1D1BDF84F
:100170000200252807D100200790089009900A90D6
:100180000B900C9005E00028C4D10D98D2E240F00D
:10019000010015F8011F2029F9D023290DD02B29A2
:1001A00004D02D2906D030290AD00CE040F00200FE
:1001B00080B2EEE740F00400FAE740F00800F7E70D
:1001C00040F01000F4E72A290ED13168316051F86F
:1001D000042B3160002A0F9204D5514240F00400F4
:1001E0000F9180B26D1C11E000210F9109E00F9971
:1001F000494505D001EB810302EB430130390F91F2
:100200006D1C2A78A2F130010A29F0D329782E2911
:1002100003D04FF0FF310E911DE015F8011F2A2980
:1002200007D1316831606D1C51F8042B31600E929A
:1002300011E000210E9109E00E99494505D001EB2E
:10024000810302EB430130390E916D1C2A78A2F133
:1002500030010A29F0D3ADF840000FF2D0402978E0
:1002600001F008F808B115F8010B8DF842009DF86F
:100270004200682802BF29786829622005D06C28CE
:1002800004BF28786C2803D171208DF842006D1CC2
:1002900014A8069015F8014BB4F125002AD01C389B
:1002A00000F0D480001F022840F2D080133800F004
:1002B000F580093800F0CA80801E00F05C81401E85
:1002C00000F03581401E022840F2C080001F00F07F
:1002D0002E81401F00F08B80401E00F0DF80401E0A
:1002E00035D0C01E0BD0801E00F0D880C01E00F09C
:1002F000D58063E125208DF85000012067E19DF84D
:1003000042006C283068306014D050F8047B3060B4
:1003100005970E9C002C04D5384600F0B7FF044624
:1003200006E022460021384600F0CCFF00B1C41B95
:1003300008944DE150F8042B306002A9404600F0CB
:1003400033FA002840F144814FF0FF30F2E1316888
:1003500031603C2451F8040B31600021CDE90201E9
:1003600014A80590DDE90201069F11B908B90E9A9B
:10037000B2B10206120FA0EB02123032D2B2631EEB
:100380003A2AA8BF27320009DA5540EA0170090964
:1003900008BF00281C4603D0059AE3199A42E8D307
:1003A000E0190590C4F13C010E980891814209DAE8
:1003B000401A0A904FF6EF71BDF840000840ADF8C2
:1003C000400005E1002840F103819DF8400000F065
:1003D0001400102840F0FC800F98079A801A0A9A9F
:1003E000801A441A012CC0F2F3800A94F0E09DF8C0
:1003F000420062281AD0682806D06A280CD06C28DF
:100400001CD0712808D019E03068306050F8041B07
:1004100030600D980880DBE03068306050F8042BC5
:1004200030600D98C117C2E90001D1E0306830603A
:1004300050F8041B30600D980870C9E030683060D7
:1004400050F8041B30600D980860C1E03068C01D92
:1004500020F007023260D2E9000108323260CDE9B3
:100460000201002902D507982D210AE0BDF84000BD
:10047000810702D507982B2103E0C00705D507980F
:10048000202100F80A10401C079014A807990818AA
:100490000590214602A800F091FB99E09DF84200EA
:1004A0006C280DD0712818BF6A2809D13068C01D8A
:1004B00020F007023260D2E900010832326005E024
:1004C0003168316051F8040B31600021CDE902013F
:1004D0009DF84200682803D1DDE9020180B20BE0FB
:1004E000622803D1DDE90201C0B205E0742818BF1B
:1004F0007A2804D1DDE902010021CDE902019DF84D
:10050000400000072ED5DDE90201002908BF0028C0
:1005100028D044F02000782824D10798302100F812
:100520000A10401C411C079100F80A401AE09DF88F
:100530004200314600F001F9CDE90201002902DA5A
:1005400007982D210AE0BDF84000810702D50798E1
:100550002B2103E0C00705D50798202100F80A10D9
:10056000401C079014A8079908180590214602A876
:1005700000F0A0FA2CE09DF842006C2809D0012080
:1005800007903068306050F8041B30608DF85010D0
:100590001EE03068306001AA50F8041B3060ADF8EE
:1005A00004100020ADF8060002A94FF0FF300E90B5
:1005B000404600F0F9F800280AD5C5E625208DF858
:1005C0005000012007901CB18AF8014002200790DA
:1005D0000F980799401A0A99401A0899401A0B99DE
:1005E000401A0999401A0C99441A9DF84000400796
:1005F00010D42020012C8DF800000BDB27460123AE
:100600006A4602A9404600F000FE00287FF49CAE36
:100610007F1EF4D1DDF81CB0BBF1000F14AF0DD07C
:1006200017F8011B0498C047002804903FF48CAED3
:100630000D98401CBBF1010B0D90F1D130208DF8CD
:1006400000000A9F012F0ADB01236A4602A94046E7
:1006500000F0DBFD00287FF477AE7F1EF4D1DDF8DB
:1006600020B0059FBBF1000F0DD017F8011B0498B7
:10067000C047002804903FF467AE0D98401CBBF1C2
:10068000010B0D90F1D130208DF800000B9F012F50
:100690000ADB01236A4602A9404600F0B6FD0028A5
:1006A0007FF452AE7F1EF4D105980899DDF824B08E
:1006B0000F18BBF1000F0DD017F8011B0498C047AD
:1006C000002804903FF440AE0D98401CBBF1010B94
:1006D0000D90F1D130208DF800000C9F012F0ADB26
:1006E00001236A4602A9404600F08FFD00287FF4EE
:1006F0002BAE7F1EF4D19DF8400040077FF50BAD77
:100700002020012C8DF80000FFF605AD01236A467C
:1007100002A9404600F079FD00287FF415AE641E62
:10072000F4D1F8E40000000000000000686A6C7476
:100730007A4C000025B0BDE8F08F622826D06828EA
:100740001DD06A2808D06C2827D0712804D07428BE
:1007500023D07A280CD020E00868C01D20F00700C4
:100760000860D0E900230830086019461046704739
:100770000A680A6052F8040B0A60002170470A6890
:100780000A6052F8040B0A6000B20BE00A680A60C3
:1007900052F8040B0A6040B204E00A680A6052F89A
:1007A000040B0A60C11770472DE9F44F0D4694B051
:1007B000D5F830A0BAF1000F804648BF6FF0004A6C
:1007C00000F0ACFD696B401801900FF66C20D0E989
:1007D0000023CDE9022395F83800400702D40198A0
:1007E000412805D240200DF110090190002609E0B2
:1007F00000F09AFD5FEA0009F8D14FF0FF3056E1B2
:10080000AAEB040ABAF1010FC0F2CE801498018855
:1008100002AA0DF1010000F0DFFD0028044600F1FE
:10082000DE801498008810B9641E00F1D880A245BB
:10083000C0F2BA80686901992218914280F0A280C2
:100840006E634042296A401AA969401A696A401ACF
:10085000E969401AA96A461A95F83800400710D489
:100860002020012E8DF800000BDB374601236A465D
:100870002946404600F0C9FC002840F0B0807F1EA9
:10088000F4D1D5F814B0BBF1000F4F460DD017F8D6
:10089000011BA868C0470028A86000F0A080E86A93
:1008A000401CBBF1010BE862F1D130208DF8000053
:1008B0002F6A012F0ADB01236A462946404600F0D1
:1008C000A4FC002840F08B807F1EF4D1D5F818B02E
:1008D000EF68BBF1000F0CD017F8011BA868C047E8
:1008E0000028A8607BD0E86A401CBBF1010BE862DD
:1008F000F2D130208DF800006F6A012F09DB01234F
:100900006A462946404600F080FC002867D17F1ED9
:10091000F5D1E868A969D5F81CB00F18BBF1000F34
:100920000CD017F8011BA868C0470028A86056D053
:10093000E86A401CBBF1010BE862F2D130208DF86F
:100940000000AF6A012F09DB01236A4629464046B1
:1009500000F05BFC002842D17F1EF5D195F83800ED
:1009600040070DD52020012E8DF8000008DB012363
:100970006A462946404600F048FC80BB761EF6D108
:1009800000266E61224668690DF10101484400F0BD
:1009900031FD6869201868611498801C1490801ECD
:1009A000008800287FF42CAF686B6969401A296AB7
:1009B000401AA969401A696A401AE969401AA96A85
:1009C000A0EB010A95F83800400710D4BAF1010FE6
:1009D0000DDB5446A8682021C047A86010B94FF02D
:1009E000FF365DE0E86A401C641EE862F2D16B6984
:1009F0004A462946404600F008FC0028EFD12C6A00
:100A0000012C0ADBA8683021C0470028A860E6D086
:100A1000E86A401C641EE862F4D1AB69EA682946C2
:100A2000404600F0F2FB0028D9D16C6A012C0ADBA9
:100A3000A8683021C0470028A860D0D0E86A401CD0
:100A4000641EE862F4D1E868A969EB690A182946CE
:100A5000404600F0DAFB0028C1D1AC6A012C0ADB69
:100A6000A8683021C0470028A860B8D0E86A401CB8
:100A7000641EE862F4D195F8380040070ED5BAF14B
:100A8000010F0BDBA8682021C0470028A860A6D072
:100A9000E86A401CBAF1010AE862F3D16E616E6344
:100AA00004A881451CBF484600F0E0FC304615B064
:100AB000BDE8F08F2DE9FA4E05460A462F696F2AE8
:100AC00008BF082405D041F02000782814BF0A246C
:100AD00010243C26D5E90001642A18BF692A814602
:100AE0008A4605D1002903DAD9F100096AEB4A0ADE
:100AF000BAF1000F08BFB9F1000F0CD1286B50B943
:100B0000082C36D195F83800000732D530203B2626
:100B100087F83B002DE0E31748465146224600F097
:100B2000E5FCA4FB0023A9EB02023032D2B2A6F10D
:100B3000010B3A2A5E4603DB9DF80030513B9A18C0
:100B40000BF8072081465FEA010A08BFB9F1000FE0
:100B500003D0E868F1198842DDD3082C09D195F853
:100B60003800000705D5F05D302802D0761E302011
:100B7000F055C6F13C00A861F119E960296B884283
:100B800008DA081A28624FF6EF71288F0840288784
:100B9000BDE8F38E00290ED595F8381001F0140148
:100BA000102908D1696B6A69891A2A6A891A0E1A8A
:100BB000012EA8BF2E62BDE8F38E00002DE9F24F92
:100BC00004468EB0D4E90001CDE9020104AF9DF8DE
:100BD000380040F0200BBBF1610F0AD0206B0028D9
:100BE00048BF062004D408BFBBF1670F01D1012024
:100BF00020636168C1F30A5040F2FF7290421CD139
:100C0000080304BF2068002809D10320A0619DF8D3
:100C1000380061381A2836D30FF2306108E003201B
:100C2000A0619DF8380061381A2829D30FF21461A9
:100C3000E068032200F0DEFBBEE1012816DA204660
:100C400000F0CBFC012811DB00250020BBF1610F77
:100C500020D1E168302201F8012B4A1CE2609DF8A6
:100C60003820612A0CBF782258220FE0626840F2D7
:100C7000FE3161F31E52451A62604FF0FF30E5E726
:100C80000FF2BC51D4E70FF2C051D1E70A7061698D
:100C9000891C616110B90026002584E1BBF1610F58
:100CA00040F09880206B00284CBF2126461CD4E9D8
:100CB00000ABDDE902010022002300F0AFFC36B2F8
:100CC0003ABF8BF00040CDE902A0CDE902AB06F1BE
:100CD00001082D1FB8F1010F8DF810200DF111073B
:100CE00036DBDDE902010022002300F0AFFC2FD249
:100CF0001C2102A800F0C2FCDDE9020100F044FD65
:100D0000A8F10708B8F1010F814609DB00F068FD82
:100D100002460B46DDE9020100F07AFDCDE9020151
:100D2000F81D072105E009F00F0200F8012D4FEA38
:100D30002919B9F1010F01DB491EF4D5491E5CBF29
:100D4000002200F8012DF9D5C71DB8F1010FC8DA4E
:100D50000DF11100391AB142B8BF0E4636B230005B
:100D60000DF111072FD4884206DA04A941184978F9
:100D70000829A8BF0F2100DA002104AA821800E088
:100D8000761E12F80139401E8B42F9D00F2904D18A
:100D900004A941184A78521C4A70002802D504AFB1
:100DA000761C2D1D36B2701E0DD4C1190A78303252
:100DB000D2B23A2A03DB9DF838303A3B9A18401EEB
:100DC00001F80129F2D5206B002840F1EC80701E5B
:100DD0002063E8E0DDE902010022002300F01EFCB0
:100DE0003CBF81F00041CDE902012DB247F297509E
:100DF00068434B49DFF82C9190FBF1F52DB2C5F11A
:100E0000070ABAF1010F90461CDBDDE902675FEAD1
:100E1000CA7007D542464B463046394600F0B8FD09
:100E200006460F464046494642464B464FEA6A0A46
:100E300000F0AEFDBAF1000F80468946E7D1CDE95A
:100E4000026724E0CAF1000A0026374F14E05FEA87
:100E5000CA7007D542464B463046394600F098FDE9
:100E600006460F464046494642464B4600F090FD36
:100E70004FEA6A0A80468946BAF1000FE7D1DDE9F8
:100E8000020132463B4600F055FECDE90201BBF1BE
:100E9000660F0CBF05F10A000620216BDFF88C906D
:100EA0004618142EA8BF132630208DF810000DF11F
:100EB0001107012E3CDBDDE9020100F07BFC07F1AC
:100EC000080104220A23B0FBF3F303EB8307A0EB32
:100ED0004700303001F8010C0A20B3FBF0F000EBC2
:100EE0008007A3EB47033033521E01F8023DE9D1DE
:100EF000083E012E01F10807DBDBDDE9020100F00D
:100F000059FC00F077FC02460B46DDE9020100F0D7
:100F10007FFC00224B4600F03BFDCDE90201CAE711
:100F2000A0860100000024400000F03F84D79741D4
:100F30000DF11100381A0DF1110702E0401E6D1E6F
:100F40007F1C39783029F9D0BBF1660F02D12DB260
:100F5000691C04E0BBF1650F0CBF01210021226B6D
:100F60008E1836B2B042B8BF064636B231001AD437
:100F7000814204DAC85D3528A8BF392000DA302064
:100F8000CA19521E00E0761E12F80139491E83422A
:100F9000F9D0392802D1C85D401CC855002902D5B6
:100FA0007F1E761C6D1C2DB29DF83810009533B253
:100FB0003A46204600F003F80FB0BDE8F08F2DE967
:100FC000F04786B006468A4690461D4600F0FBFE76
:100FD000012D406A376B90F8009002DA01250FF27C
:100FE00070284AF02000BDF93840662808BF641C0C
:100FF00012D0672876D114F1040F79DBBC4277DA7E
:1010000096F83800641C000702D4BD42B8BF2F46D2
:1010100024B23F1B48BF002724B2F068B169012CFD
:1010200021DA4A1C30230B54012F03DA96F83810CA
:10103000090702D502F80090521CB261E742B8BF1E
:101040007C4224B26142E7197162AF42B8BF3D46AB
:10105000B3692DB2F5612A464146181800F0CAF965
:10106000781BB062BAE00818A54216DA2A46414653
:1010700000F0C0F9B1696918601B012FB16170629D
:1010800003DA96F83800000705D5F06801F80090FB
:10109000F069401CF061B762A0E02246414600F0D2
:1010A000A9F9B06920182D1B012F03DA96F8381022
:1010B000090703D5F16800F80190401C2DB2B0611A
:1010C000AF42B8BF3D46F068B3692DB22A4604EB83
:1010D0000801181800F08EF9B0692818B061781B63
:1010E00070627BE0BAF1610F14D14FF0700A16E024
:1010F000BD4204DA96F83810090758BF2F467F1E04
:1011000048BF0027BAF1670F14BF4FF0450A4FF0F0
:10111000650A04E0BAF1410F08BF4FF0500AB16907
:10112000F0684A1CB261012F18F8013B0B5403DA36
:1011300096F83810090715D5531CB36102F80090D2
:10114000012F0FDB6D1E2DB2AF42B8BF3D462DB251
:101150002A464146181800F04DF9B0692818B061C8
:10116000781B7062F068B1690918200081F800A04E
:1011700004D42B20487001F1020804E02D224A70AB
:1011800001F102086442002502AF08E00A22684625
:1011900000F032FE019807F8010B6D1C009C21B293
:1011A0000129F3DA022D06DA4AF02000652804BF8F
:1011B000302008F8010B4DB9302008F8010B07E08A
:1011C0006D1E02A8285C303008F8010B012DF7DAFB
:1011D000F068B1690818A8EB0000F06196F83800D3
:1011E00000F0140010280DD17069B1690818716AF7
:1011F0000818F1690818B16A0818716B8842BCBFF9
:10120000081A306206B0BDE8F087F8B504460D460E
:1012100016461F46002077B116F8011BA868A047A4
:10122000A86030B1E86A401CE86200207F1EF3D15C
:10123000F2BD4FF0FF30F2BD0000000000000000E2
:101240006E616E004E414E00696E6600494E46006A
:101250003000F8B504460D4616461F4600F0D4FD92
:101260003B4632462946204601B0BDE8F04000F03A
:10127000E2BD00000278C9B28A421AB11CBF10F860
:10128000012FF9E718BF00207047000000F10103AB
:10129000810704D010F8011B89B18107FAD10268D7
:1012A000B2F10131914311F0803F04BF50F8042F97
:1012B000F6E710F8011B11B110F8011BFBE7C01A8B
:1012C00070470000C9B2830706D0521E22D310F81F
:1012D000013B9942F7D11FE0083A13D302F104020F
:1012E00041EA012141EA014150F8043B121F21BFAC
:1012F0004B40A3F1013C2CEA030C1CF0803FF3D0DF
:10130000C9B2001F083210F8013B521E28BF91EAF3
:10131000030FF8D818BF0120401E704780B500F0B9
:1013200073FD012002BD000070B5054605F10F00F8
:10133000C408C046C046E400A54232D2082C04D2FC
:10134000082402E0083000F091F8224802681100F9
:101350000CD1011D0A6802B31368A34238BF111DE6
:10136000F8D310E01D68A5420DD2191D0B68002BA3
:10137000F8D11268011D00E0191D0B6893420CD0D2
:101380001D68A542F8D361B10D682A68A2F108036F
:10139000A3420AD26A680A600FE000F06FFD0028DD
:1013A000D0D1C046C046002070BD63190B60121B2F
:1013B0006E685E600B681A602C60096800291DBFAA
:1013C0004A68002A091D00210160C046C04605F197
:1013D000080070BD9011002070B504460D461646F9
:1013E00000F012FD324629462046BDE8704000F06C
:1013F00015BD000062B38B0708D0521E11F8013BE7
:1014000000F8013B00F024808B07F6D1830740F001
:10141000208000BF103A07D330B4B1E83810103A3A
:10142000A0E83810F9D230BC530724BFB1E8081047
:10143000A0E8081044BF51F8043B40F8043BD20731
:1014400024BF31F8022B20F8022B44BF0B78037025
:101450007047083A07D3B1E80810083A40F8043B4F
:1014600040F804CBF7D25307E4E7000000B9704717
:1014700038B5A0F108042068082833D310F0070F0E
:1014800030D1C046C0461848416809B18C4203D2E9
:101490006160446017E019464B680BB1A342FAD370
:1014A0000B685D18AC421BD3A54204D12268D21848
:1014B0000A600C4607E04A681AB123681B199A4271
:1014C0000ED362604C60616851B1226813198B427F
:1014D00006D10023036008688018206048686060B7
:1014E000C046C04631BD0000901100201B4213D100
:1014F000094236D12AB18446B0FBF2F002FB10C299
:10150000704700F0D1BCFCD30022002370470B00D1
:101510000200002100207047904271EB030CF6D3CB
:1015200070B5B1FA81F4B3FA83F52C1BA340C4F172
:10153000200532FA05F63343A2405FF00046E6404C
:1015400002E05B085FEA3202841A71EB030524BFF4
:10155000204629467641F4D302000B0030000021DA
:1015600070BD012ACFD970B5140C20D0B1FA81F426
:10157000B2FA82F5C4F120046419B4F12006D6D37E
:10158000B2405FF00044F440002502E052085FEAF8
:101590003303C61A71EB020E24BF30467146644114
:1015A0006D41F3D302000B002000290070BD0C46F2
:1015B000B1FBF2F102FB11452D0445EA1045B5FBE4
:1015C000F2F402FB145580B240EA0545B5FBF2F097
:1015D00002FB105240EA044070BD30B4436803F08F
:1015E000004201211B031B0B436004BF0368002B57
:1015F00008D10DE00368DD0F45EA440444605B0058
:101600000360491E4468E302F4D523031B0B4360C7
:1016100043681A434260084630BC70474FF4001CD0
:101620001CEB410F94BF1CEB430F09E041EA030C94
:1016300050EA4C0C52EA0C0C03D2994208BF90427B
:10164000704714BF8B428242704700004FF4001C69
:101650001CEB410F94BF1CEB430F09E041EA030C64
:1016600050EA4C0C52EA0C0C03D28B4208BF824267
:10167000704714BF994290427047000070B504460D
:101680000D466068C0F30A5040F2FF71884207D1EE
:101690006068000304BF2068002817D0022070BDD6
:1016A00020B92046FFF799FF012866DA012D0FDBEC
:1016B00040F2FF71091A8D420AD36068002847BFC3
:1016C00000202F4900202F49C4E90001012070BDEE
:1016D0004142A942616806DA6FF31E51401941EA9E
:1016E0000050606040E0401E63684519012205F12A
:1016F000350062F31F53352801F00041636003D3C6
:1017000061600020206070BD002015F11F0F04DA19
:10171000206823600022203562606A4212D0401E99
:1017200025688041C2F12003C0439D4045EAD07046
:1017300025686668D54006FA03F32B432360636887
:10174000D340636062680A43B0F1004F626003D81F
:101750000DD12078C0070AD52068401C2060206881
:1017600028B96068401C60604FF0FF3070BD606851
:10177000884204BF20680028F6D1002070BD00BF59
:101780000000F0FF0000F07FF446400D40EAC12069
:10179000490006D200F014F8004248BF6FF0004044
:1017A000604700F00DF84FF0004188428CBF0846BA
:1017B00040426047400D40EAC120490080F00D8062
:1017C00040F00040490DA1F58061491C05D4D1F1DC
:1017D0001F0154BFC840C01770474FF0000070474A
:1017E000010040F10980F446404200F005F851F054
:1017F00000416047010000BF09D0B0FA80F1884085
:10180000C91CC1F58461090501EBD0214005704771
:10181000F0B44FF0004591EA030F44BF6B4000F075
:1018200045BB00BF841A71EB030604D26E40001B57
:10183000B141121973414FF4001C1CEB410F34BF2E
:101840007CEB430684E00C0DA4EB1356362E7DDCB6
:10185000012E43DC45EAC32343EA525312BFD202AE
:1018600092025B08240545EAC12141EA5051D2EBBE
:10187000C020994125D407D1B0FA80F610FA06F1BC
:1018800064D00020203608E0B1FA81F6B140C6F1FC
:10189000200220FA02F21143B0404FEAF474B4EB94
:1018A000465434F001064FEA74040AD8D6F50016FF
:1018B000760D04F00044F04061FA06F25040F14029
:1018C0004840C00A40EA415021F0004128BF5FEA89
:1018D000500550F1000044EBD12137E045EAC32325
:1018E000DB0A45EAC121C90AB6F120050EDD42EA4C
:1018F0000242120CC5F1200603FA06F6EB4042EA5A
:1019000006056D42984161F100010DE062FA06F5AD
:10191000F240554063FA06FC82EA0C02F3405A405A
:101920006D42904161EB030111F4801F05D1641EEB
:10193000620502D06D004041494121F48011430805
:1019400075F1004350F1000041EB0451F0BC7047C9
:101950001CEB410F15D223F0004352EA43060BD093
:101960004FEA4C0CBCEB410F04D80C0D661E342E14
:10197000B7DDEBE7801A994150EA410608BF002124
:10198000E4E708BF1CEB430F28BF6FF00001DDE761
:10199000B0B581EA030C0CF0004C40F2FF7515EA7B
:1019A00011541DBF15EA1357AC42AF4239E0E41998
:1019B00023EA455343F48013C90241F0004141EA50
:1019C000505EC7021100A7FB020200284FF0000082
:1019D000EEFB01204FF00001E3FB072118BF42F0AE
:1019E0000102401800214941E3FB0E01A4F5806487
:1019F0000F0302D252004041494154F101046CDD11
:101A0000470872F1004250F1000051EB0451A1F57A
:101A100080115CBF41EA0C01B0BD4CEA05510020C9
:101A2000B0BD05EA1357AC4214BFAF4241E050EAE3
:101A3000410E1CBF52EA430E02E061460020B0BDD9
:101A400024423C441BD15FEA070EF6D0090302BFD3
:101A500001460020AEF1140EB1FA81F7AEEB070497
:101A600001FA07FE0C37C7F1200100FA07F7C8405A
:101A70004EEA000E23EA455343F48013A2E733F005
:101A80000043B3FA83F704BFB2FA82FE77440B3FF8
:101A9000E41BB7F1200E2FBF02FA0EF3BB40C7F1D3
:101AA000200E22FA0EFE38BF43EA0E03BA40641C31
:101AB00082E750EA410E14BF52EA430E6FF0000174
:101AC0004FF4001717EB430F8ABF194617EB410F6E
:101AD000B5E74CEA05510020B0BDD4F10104B4F1E2
:101AE00020070FDAC4F12007520828BF42F0010294
:101AF00010FA07F501FA07F7E1BF2A43E04038433F
:101B0000E1400FE0352C98DCC7F1200452EA400296
:101B100020FA07F218BF42F0010231FA07F0A140A3
:101B20000A43002172F1004250F1000051EB0C0118
:101B3000B0BD00002DE9F04140F2FF7581EA030CD1
:101B40000CF0004C15EA11541DBF15EA1357AC42B6
:101B5000AF42E9E0BC41C1F31301C3F31303801AA0
:101B6000994143F4801304D2641E40004941801817
:101B70005941C90241EA5051B1FBF3F603FB16117A
:101B8000A2FB0675D7EBC020A94102D2761E8018B1
:101B90005941C90241EA5051B1FBF3FE03FB1E114A
:101BA000A2FB0E75D7EBC020A94103D2AEF1010E06
:101BB00080185941890241EA9051760546EA8E2EF5
:101BC000B1FBF3F603FB1611A2FB0675D7EB8020E1
:101BD000A94102D2761E80185941C90241EA5051EA
:101BE0004EEA060EB1FBF3F603FB1611A2FB0675D7
:101BF000D7EBC020A94102D2761E80185941C902F4
:101C000041EA5051B1FBF3F703FB1711A2FB073573
:101C1000D3EBC020A94167F100070CBF004247F099
:101C2000010766F3D5274FEA1E31B80814F5806422
:101C300014DDBD0775F1004250EB0E5051EB04511D
:101C400011F5801F5CBF41EA0C01BDE8F0814CF04A
:101C50007F6141F0E0410020BDE8F081BD076D08E3
:101C600040EA0E5041F48011D4F10104B4F1200691
:101C70000ADAC4F120060200E04001FA06F3E1406E
:101C80001843B24015430EE0342C14DCC6F1200496
:101C900045EA40056D0820FA06F2154321FA06F0E0
:101CA000A1400D43002175F1004250F1000051EBBD
:101CB0000C01BDE8F08100205FEA0C01BDE8F08175
:101CC000CFB992185B41B3FA83F704BFB2FA82F638
:101CD000BF190B3FB7F120062FBF02FA06F3BB4036
:101CE000C7F1200622FA06F638BF3343BA401CB1CA
:101CF000E419641E2FE77F4231F00041B1FA81F40C
:101D000004BFB0FA80F6A4190B3CB4F120062FBF33
:101D100000FA06F1A140C4F1200620FA06F638BF09
:101D20003143A0403C1B16E7AC421ABF05EA1357EB
:101D3000AF4214E050EA41061CBF52EA4306BFE737
:101D400050EA4107304661461CBF41EA0551BDE8F3
:101D5000F08152EA430C08BFC143BDE8F081002086
:101D60004FF4001616EB410F98BF16EB430F08BF58
:101D700016EB410F24BFC14305E016EB430F0CBF28
:101D800061464CEA0551BDE8F081000080B513487A
:101D900000F0F6F80FF24C020FF2440101604262CB
:101DA00041600FF24402826381600FF24402C1601D
:101DB0000161416181618162C16201634163C2630A
:101DC0000164416401BD10B5044800F0D9F804462F
:101DD000206808B9FFF7DAFF204610BD4000002058
:101DE000000000002E00000066616C7365000000BA
:101DF000747275650000000091FBF2F303FB121191
:101E0000C0E900317047000080B5DFF80C0000F039
:101E1000B7F8806902BD0000D000002030B430B9AE
:101E20000FF24800D0E90045C2E900451BE001700F
:101E3000012030BC704730B431B90FF23800D0E91E
:101E40000045C3E900450EE01AB930BC6FF001004F
:101E5000704708B10A7802800978481E804130BC7A
:101E6000C043C00F7047002030BC70470000000026
:101E700000000000000000000000000007490868A2
:101E800008B1002070470648C008C0000860054936
:101E9000C908C900091A0160704700BF98110020E5
:101EA000470900204011002070470000841A71EBA0
:101EB000030603D2001BB141121973414FF4001CF9
:101EC0001CEB410F34BF7CEB430443E00C0DA4EB4F
:101ED0001356352E50DC45EAC323DB0A45EAC121FF
:101EE000C912B6F120050DDD63FA05F6EB4086EA6E
:101EF0000305124218BF45F00105C01851F1000159
:101F00000CD213E062FA06F5F2405540F3415A4014
:101F1000B340F3405A408018594107D349085FEA5B
:101F200030005FEA350528BF45F0010501F5801155
:101F3000420875F1004250F1000041EB0451F0BC41
:101F40004FF4001C1CEB410F38BF70470020090DF7
:101F5000090570471CEB410F10D252EA43060BD023
:101F6000BCEB410F05D80C0DAB43661E342EB5DD1E
:101F700002E0AB4380185941F0BC7047F0BC704799
:101F80007047000001B402E00098401E00900098E5
:101F90000028F9D101B0704780B5DFF8C803FFF71A
:101FA000F1FF01BD80B5DFF8C003FFF7EBFF01BD16
:101FB00070B4002200250023002600240025CA78E2
:101FC00012F00F02CB78DB0601D58B781A430B7821
:101FD0001B0621D00468002306E0CD78482D02D1ED
:101FE00001259D4005615B1C082B14D2012515FAC3
:101FF00003F60D883540B542F5D19E000F25B5405A
:10200000AC4312FA06F52C43CD78282DE5D10125F5
:102010009D404561E7E704600B88FF2B27DD44689E
:10202000002308E0CD78482D04D1012513F10806DE
:10203000B54005615B1C082B18D2012513F1080679
:1020400015FA06F60D883540B542F3D19E000F25EE
:10205000B540AC4312FA06F52C43CD78282DE1D1DA
:10206000012513F10806B5404561E3E7446070BC03
:10207000704780B54FF40070ADF8000003208DF874
:10208000020018208DF803006946B848FFF790FF5A
:102090004FF48060ADF8000004208DF8030069461D
:1020A000B248FFF785FF0120ADF8000004208DF84D
:1020B00003006946AD48FFF77BFF0220ADF8000042
:1020C00004208DF803006946A848FFF771FF4FF41C
:1020D0004870ADF8000003208DF8020010208DF844
:1020E00003006946A248FFF763FF40F2FF10ADF816
:1020F000000003208DF8020010208DF803006946CF
:102100009C48FFF755FF01BD30B400239A4A0024D4
:102110000024038A4CF6FF742340CC8823430382B7
:1021200083894EF6F31423408C880D892C434D8906
:102130002C4323438381838A4FF6FF4423408C89B9
:102140002343838219235A4309688900B2FBF1F4BF
:102150006421B4FBF1F10B011909642202FB114463
:10216000210132316422B1FBF2F111F00F010B4376
:10217000038130BC704700B585B05FF4E13000905A
:102180000020ADF804000020ADF806000020ADF8F6
:1021900008000020ADF80C000C20ADF80A006946DC
:1021A0007648FFF7B1FF7648008850F40050744934
:1021B000088005B000BDC905C90D818070470022A7
:1021C0000088084201D0012200E000221000C0B2C5
:1021D000704780B5C0B2010089B26848FFF7EBFFD5
:1021E00080216648FFF7EBFF0028F9D001BD10B54C
:1021F000040003E02078FFF7ECFF641C207800283F
:10220000F8D110BD10B504000A2C0ED10D215B4889
:10221000FFF7D1FF80215948FFF7D1FF0028F9D0FF
:102220000A215648FFF7C7FF05E02100C9B289B26D
:102230005248FFF7C0FF80215048FFF7C0FF002839
:10224000F9D0200010BD8088C005C00D704738B59A
:10225000040020212000FFF7B2FF0028F9D0200061
:10226000FFF7F1FF0500EDB2290089B22000FFF76A
:10227000A2FF80212000FFF7A2FF0028F9D0EDB2D5
:102280000D2D01D10A2001E02800C0B232BD80B579
:102290003C48018889B23C4800F090F801BD10B577
:1022A0003A48006850F00400384908603748006830
:1022B00050F00800354908603448006850F01000BC
:1022C000324908603148006850F480402F49086066
:1022D000FFF7CFFEFFF74FFF2D48FFF788FF2D4890
:1022E00000F06CF82C4800F069F82C4800F066F813
:1022F0002B4800F063F82B4800F060F8284800F005
:102300005DF8294800F05AF8284800F057F82848A6
:1023100000F054F8224800F051F8264800F04EF83A
:102320001648FFF794FF0400234800F047F8E4B292
:10233000302C06D010D3322C09D005D3332C09D041
:102340000AE0FFF7A4FF07E000F09FF804E000F0C8
:10235000ACF801E000F029F9E4B2782CC2D10020F9
:1023600010BD0000C44E0C00143B010000080140E9
:10237000000C01400010014000127A0000380140BA
:102380000C38014008380140982700081810024016
:10239000D426000818270008382700082C28000831
:1023A000B0270008C82700083C2800084C2800086F
:1023B000042800086C2800085C2800080EB400B54A
:1023C00082B003A9009102466B460121034878447C
:1023D0000A30FDF78BFE06BC5DF810FB050400001B
:1023E0001448006850F400701249086070471248A1
:1023F000006850F400701049086070470D4800688C
:1024000050F020000B49086070470B48006850F0FE
:1024100020000949086070470648006850F4807041
:102420000449086070470448006850F4807002490D
:1024300008607047140C0140100C014080B5FFF794
:10244000D6FFFFF7E2FFFFF7EEFF01BD10B5040076
:1024500018E0FFF7CCFFFFF7D1FFFFF7DDFFFFF735
:102460009BFDFFF7BDFFFFF7D0FFFFF7D5FFFFF79D
:1024700093FDFFF7B5FFFFF7C1FFFFF7D4FFFFF7AD
:102480008BFD641E002CE4D110BD80B51E20FFF72B
:10249000DDFF01BD0022806889B2084201D001221F
:1024A00000E000221000C0B2704710B50024FFF712
:1024B000C5FF01E0FFF7A2FFFFF774FD2000441CF9
:1024C000C00702D4FFF7A8FF01E0FFF7ACFF01212E
:1024D0000948FFF7DFFF012802D1FFF781FF01E084
:1024E000FFF785FF02210448FFF7D4FF0128E1D060
:1024F000FFF78BFFE0E70000000801404A48006852
:1025000050F480704849086070474749096880B2B4
:1025100008434549086070474449096880B2084348
:1025200042490860704780B5FF20FFF7F5FF01BD05
:1025300010B50400FFF7F7FF002C0ED0022C14D0CA
:102540000FD3042C19D014D3062C1ED019D3082C69
:1025500023D01ED3092C24D026E03F20FFF7D5FF3F
:1025600022E00620FFF7D1FF1EE09B20FFF7CDFF02
:102570001AE08F20FFF7C9FF16E0A620FFF7C5FF7E
:1025800012E0AD20FFF7C1FF0EE0BD20FFF7BDFF59
:102590000AE02720FFF7B9FF06E0BF20FFF7B5FFED
:1025A00002E0AF20FFF7B1FF10BD10B52048FFF7E4
:1025B00005FFFFF7A3FFFFF7EFFCFFF7B4FF0120D4
:1025C000FFF7A3FFFFF7E8FC0220FFF79EFFFFF7EE
:1025D000E3FC0420FFF799FFFFF7DEFC0820FFF77C
:1025E00094FFFFF7D9FC1020FFF78FFFFFF7D4FC13
:1025F0002020FFF78AFFFFF7CFFC8020FFF785FF41
:10260000FFF7CAFC4020FFF780FFFFF7C5FC00245E
:1026100006E0E4B22000FFF78BFFFFF7BDFC641C6F
:10262000E4B20A2CF5DB10BD14100140101001407B
:102630001828000819E050F8041BCB0744BFA9F183
:1026400001035918121F0023042A41F8043BF9D250
:102650005FEA827C0B4604D54FF0000CA1F800C065
:102660009B1CD10744BF0021197050F8042B002A8D
:10267000E1D1704730B5016842688468091801EB00
:102680005203D20748BF4C440C30994200D130BDB0
:1026900011F9012B11F8015B002A04F8015B02D546
:1026A000521CF9D1F1E7521EF4D5EEE710B50749F7
:1026B00079441831064C7C44163404E00A68081D3D
:1026C000511888470146A142F8D110BD2C000000E6
:1026D000480000000D0A48656C6C6F20576F726CE3
:1026E00064212048656C6C6F20436F727465782D8F
:1026F0004D33210D0A0000003DFFFFFF5C0000008C
:1027000040110020000000006DFFFFFF48020000A4
:102710005A0000000000002048656C6C6F20436F79
:10272000727465782D4D332120776974682070723A
:10273000696E74660A0000000A2D2D2D2D2D2D2D99
:102740002D2D2D2D2D2D2D2D2D2D2D2D2D2D2D0ADC
:102750000000000000F00BF8002801D0FFF7A6FFF2
:102760000020C046C046FFF79AFD00F002F80120A5
:10277000704700F001B800000746384600F002F844
:10278000FBE7000080B5C046C046024A1100182091
:10279000ABBEFBE7260002005553415254312D3E9B
:1027A000425252203A203078253038580A00000032
:1027B0002D2D2D2D2D2D2D2D2D2D2D2D2D2D2D2D49
:1027C0002D2D2D2D2D2D0A00303E2053797374654B
:1027D0006D20496E666F726D6174696F6E0A0000DC
:1027E00038B504460D46284600F006F8A84218BF42
:1027F0000024204632BD00000149FFF703BD00BFA1
:1028000000000020333E20372D5365676D656E74E0
:1028100020546573740A0000536576656E20536515
:10282000676D656E7420546573740A005072657329
:1028300073206D656E75206B65790A00313E204C02
:10284000454420546573740A00000000323E204B5A
:10285000455920546573740A0000000020697320F4
:1028600073656C65637465640A0A0000783E2051E4
:102870007569740A00000000C046C046C046C046E4
:10288000FFF768FFFFF7FEBFFFF7FEBFFFF7FEBFD2
:10289000FFF7FEBFFFF7FEBFFFF7FEBFFFF7FEBF6C
:1028A000FFF7FEBFFFF7FEBFFFF7FEBFFFF7FEBF5C
:1028B000FFF7FEBFFFF7FEBFFFF7FEBFFFF7FEBF4C
:1028C000FFF7FEBFFFF7FEBFFFF7FEBFFFF7FEBF3C
:1028D000FFF7FEBFFFF7FEBFFFF7FEBFFFF7FEBF2C
:1028E000FFF7FEBFFFF7FEBFFFF7FEBFFFF7FEBF1C
:1028F000FFF7FEBFFFF7FEBFFFF7FEBFFFF7FEBF0C
:10290000FFF7FEBFFFF7FEBFFFF7FEBFFFF7FEBFFB
:10291000FFF7FEBFFFF7FEBFFFF7FEBFFFF7FEBFEB
:10292000FFF7FEBFFFF7FEBFFFF7FEBFFFF7FEBFDB
:10293000FFF7FEBFFFF7FEBFFFF7FEBFFFF7FEBFCB
:10294000FFF7FEBFFFF7FEBFFFF7FEBFFFF7FEBFBB
:10295000FFF7FEBF1F02040101401100209011008B
:10296000204011002040110020401100203D0000B7
:102970002024000020C400F8FFDC00FAFF8100D111
:012980000056
:04000005080028794E
:00000001FF
