:020000040800F2
:10000000000800205D030008690300086D03000874
:100010007103000875030008790300080000000060
:100020000000000000000000000000007D03000848
:100030008103000800000000850300088903000810
:100040008D03000891030008950300089903000838
:100050009D030008A1030008A5030008A9030008E8
:10006000AD030008B1030008B5030008B903000898
:10007000BD030008C1030008C5030008C903000848
:10008000CD030008D1030008D5030008D9030008F8
:10009000DD030008E1030008E5030008E9030008A8
:1000A000ED030008F1030008F5030008F903000858
:1000B000FD03000801040008050400080904000805
:1000C0000D040008110400081504000819040008B4
:1000D0001D04000821040008250400082904000864
:1000E0002D040008310400083504000801B402E0C2
:1000F0000098401E009000980028F9D101B0704788
:1001000080B54C48FFF7F2FF01BD70B40022002516
:100110000023002600240025CA7812F00F02CB78B5
:10012000DB0601D58B781A430B781B0621D00468B7
:10013000002306E0CD78482D02D101259D400561C0
:100140005B1C082B14D2012515FA03F60D883540E7
:10015000B542F5D19E000F25B540AC4312FA06F525
:100160002C43CD78282DE5D101259D404561E7E759
:1001700004600B88FF2B27DD4468002308E0CD785E
:10018000482D04D1012513F10806B54005615B1C1B
:10019000082B18D2012513F1080615FA06F60D886A
:1001A0003540B542F3D19E000F25B540AC4312FA5D
:1001B00006F52C43CD78282DE1D1012513F1080651
:1001C000B5404561E3E7446070BC704780B51A48AC
:1001D000006850F00400184908601748006850F0A3
:1001E0000800154908600120ADF8000004208DF8D2
:1001F000030069461148FFF788FF0220ADF80000B0
:1002000004208DF8030069460C48FFF77EFF4FF489
:100210004870ADF8000003208DF8020010208DF822
:10022000030069460648FFF770FF00F016F8FEE786
:1002300000000000143B01001810024000080140BB
:10024000000C01400022806889B2084201D00122DE
:1002500000E000221000C0B2704710B5002400F08A
:1002600053F801E000F030F8FFF74AFF2000441C8B
:10027000C00702D400F036F801E000F03AF801219E
:100280000948FFF7DFFF012802D100F00FF801E075
:1002900000F013F802210448FFF7D4FF0128E1D051
:1002A00000F019F8E0E70000000801401448006879
:1002B00050F400701249086070471248006850F40A
:1002C00000701049086070470D48006850F0200029
:1002D0000B49086070470B48006850F0200009493E
:1002E000086070470648006850F480700449086050
:1002F00070470448006850F48070024908607047F5
:10030000140C0140100C014080B5FFF7D6FFFFF739
:10031000E2FFFFF7EEFF01BD00F00BF8002801D06F
:10032000C046C0460020C046C046FFF74FFF00F061
:1003300002F80120704700F001B800000746384677
:1003400000F002F8FBE7000080B5C046C046024A54
:1003500011001820ABBEFBE726000200C046C046D5
:10036000C046C046FFF7D8FFFFF7FEBFFFF7FEBF4E
:10037000FFF7FEBFFFF7FEBFFFF7FEBFFFF7FEBFB1
:10038000FFF7FEBFFFF7FEBFFFF7FEBFFFF7FEBFA1
:10039000FFF7FEBFFFF7FEBFFFF7FEBFFFF7FEBF91
:1003A000FFF7FEBFFFF7FEBFFFF7FEBFFFF7FEBF81
:1003B000FFF7FEBFFFF7FEBFFFF7FEBFFFF7FEBF71
:1003C000FFF7FEBFFFF7FEBFFFF7FEBFFFF7FEBF61
:1003D000FFF7FEBFFFF7FEBFFFF7FEBFFFF7FEBF51
:1003E000FFF7FEBFFFF7FEBFFFF7FEBFFFF7FEBF41
:1003F000FFF7FEBFFFF7FEBFFFF7FEBFFFF7FEBF31
:10040000FFF7FEBFFFF7FEBFFFF7FEBFFFF7FEBF20
:10041000FFF7FEBFFFF7FEBFFFF7FEBFFFF7FEBF10
:10042000FFF7FEBFFFF7FEBFFFF7FEBFFFF7FEBF00
:08043000FFF7FEBFFFF7FEBF5E
:040000050800035D8F
:00000001FF
