:020000040800F2
:1000000000080020DD040008E9040008ED040008F1
:10001000F1040008F5040008F904000800000000DD
:10002000000000000000000000000000FD040008C7
:10003000010500080000000005050008090500088A
:100040000D05000811050008150500081905000830
:100050001D050008210500082505000829050008E0
:100060002D05000831050008350500083905000890
:100070003D05000841050008450500084905000840
:100080004D050008510500085505000859050008F0
:100090005D050008610500086505000869050008A0
:1000A0006D05000871050008750500087905000850
:1000B0007D05000881050008850500088905000800
:1000C0008D050008910500089505000899050008B0
:1000D0009D050008A1050008A5050008A905000860
:1000E000AD050008B1050008B505000801B402E03F
:1000F0000098401E009000980028F9D101B0704788
:1001000080B59F48FFF7F2FF01BD70B400220025C3
:100110000023002600240025CA7812F00F02CB78B5
:10012000DB0601D58B781A430B781B0621D00468B7
:10013000002306E0CD78482D02D101259D400561C0
:100140005B1C082B14D2012515FA03F60D883540E7
:10015000B542F5D19E000F25B540AC4312FA06F525
:100160002C43CD78282DE5D101259D404561E7E759
:1001700004600B88FF2B27DD4468002308E0CD785E
:10018000482D04D1012513F10806B54005615B1C1B
:10019000082B18D2012513F1080615FA06F60D886A
:1001A0003540B542F3D19E000F25B540AC4312FA5D
:1001B00006F52C43CD78282DE1D1012513F1080651
:1001C000B5404561E3E7446070BC704780B54FF4CB
:1001D0000070ADF8000003208DF8020018208DF8A3
:1001E000030069466748FFF790FF4FF48060ADF861
:1001F000000004208DF8030069466248FFF785FF80
:100200000120ADF8000004208DF8030069465D4828
:10021000FFF77BFF0220ADF8000004208DF80300FB
:1002200069465848FFF771FF4FF44870ADF8000079
:1002300003208DF8020010208DF803006946524813
:10024000FFF763FF01BD30B40023504A00240024AF
:10025000038A4CF6FF742340CC88234303828389AE
:100260004EF6F31423408C880D892C434D892C4382
:1002700023438381838A4FF6FF4423408C892343A1
:10028000838219235A4309688900B2FBF1F464217F
:10029000B4FBF1F10B011909642202FB11442101A5
:1002A00032316422B1FBF2F111F00F010B430381F3
:1002B00030BC704700B585B05FF4E130009000209D
:1002C000ADF804000020ADF806000020ADF80800ED
:1002D0000020ADF80C000C20ADF80A0069462C484F
:1002E000FFF7B1FF2B48008850F4005029490880DF
:1002F00005B000BDC905C90D818070470022008886
:10030000084201D0012200E000221000C0B2704774
:1003100080B5C0B2010089B21D48FFF7EBFF802114
:100320001B48FFF7EBFF0028F9D001BD10B5040012
:1003300003E02078FFF7ECFF641C20780028F8D158
:1003400010BD80B51448006850F0040012490860E0
:100350001148006850F008000F4908600E48006816
:1003600050F480400C490860FFF730FFFFF7A2FF10
:100370000A48FFF7DBFF00F01EF8FEE70000000070
:10038000143B010000080140000C014000127A00FB
:10039000003801400C380140181002407404000875
:1003A0000022806889B2084201D0012200E00022C8
:1003B0001000C0B2704710B5002400F053F801E0FF
:1003C00000F030F8FFF79CFE2000441CC00702D468
:1003D00000F036F801E000F03AF801210948FFF793
:1003E000DFFF012802D100F00FF801E000F013F860
:1003F00002210448FFF7D4FF0128E1D000F019F8EA
:10040000E0E70000000801401448006850F4007064
:100410001249086070471248006850F40070104993
:10042000086070470D48006850F020000B490860D4
:1004300070470B48006850F0200009490860704779
:100440000648006850F4807004490860704704480A
:10045000006850F48070024908607047140C014035
:10046000100C014080B5FFF7D6FFFFF7E2FFFFF762
:10047000EEFF01BD0D0A48656C6C6F20576F726C02
:1004800064212048656C6C6F20436F727465782D11
:100490004D33210D0A00000000F00BF8002801D0B8
:1004A000C046C0460020C046C046FFF74AFF00F0E5
:1004B00002F80120704700F001B8000007463846F6
:1004C00000F002F8FBE7000080B5C046C046024AD3
:1004D00011001820ABBEFBE726000200C046C04654
:1004E000C046C046FFF7D8FFFFF7FEBFFFF7FEBFCD
:1004F000FFF7FEBFFFF7FEBFFFF7FEBFFFF7FEBF30
:10050000FFF7FEBFFFF7FEBFFFF7FEBFFFF7FEBF1F
:10051000FFF7FEBFFFF7FEBFFFF7FEBFFFF7FEBF0F
:10052000FFF7FEBFFFF7FEBFFFF7FEBFFFF7FEBFFF
:10053000FFF7FEBFFFF7FEBFFFF7FEBFFFF7FEBFEF
:10054000FFF7FEBFFFF7FEBFFFF7FEBFFFF7FEBFDF
:10055000FFF7FEBFFFF7FEBFFFF7FEBFFFF7FEBFCF
:10056000FFF7FEBFFFF7FEBFFFF7FEBFFFF7FEBFBF
:10057000FFF7FEBFFFF7FEBFFFF7FEBFFFF7FEBFAF
:10058000FFF7FEBFFFF7FEBFFFF7FEBFFFF7FEBF9F
:10059000FFF7FEBFFFF7FEBFFFF7FEBFFFF7FEBF8F
:1005A000FFF7FEBFFFF7FEBFFFF7FEBFFFF7FEBF7F
:0805B000FFF7FEBFFFF7FEBFDD
:04000005080004DD0E
:00000001FF
