:020000040800F2
:100000000008002005020008E3010008E3010008E1
:10001000E3010008E3010008E3010008000000001C
:10002000000000000000000000000000E3010008E4
:10003000E301000800000000E3010008E3010008FC
:1000400001B402E00098401E009000980028F9D109
:1000500001B0704780B52D48FFF7F2FF01BDD2B265
:10006000C9B251EA82010022020618D0002200E043
:10007000521C082A2DD280B2012393409842F7D116
:100080009200234800680F2393409843204B186048
:100090001F480068914008431D49086019E080B27C
:1000A000000A002200E0521C082A12D280B201236A
:1000B00093409842F7D19200164800680F2393406E
:1000C0009843144B18601348006891400843114945
:1000D0000860704780B51048006850F008000E496D
:1000E0000860002201214FF40070FFF7B8FF0022E2
:1000F00001212020FFF7B3FF002201214FF480707F
:10010000FFF7ADFF00F057F8FEE70000C44E0C000B
:10011000000C0140040C0140181002401448006813
:1001200050F400701249086070471248006850F49B
:1001300000701049086070470D48006850F02000BA
:100140000B49086070470B48006850F020000949CF
:10015000086070470648006850F4807004490860E1
:1001600070470448006850F4807002490860704786
:10017000140C0140100C014010B5040018E0FFF70A
:10018000D4FFFFF7D9FFFFF7E5FFFFF763FFFFF7A6
:10019000C5FFFFF7D8FFFFF7DDFFFFF75BFFFFF7B6
:1001A000BDFFFFF7C9FFFFF7DCFFFFF753FF641E3A
:1001B000002CE4D110BD80B51E20FFF7DDFF01BD8E
:1001C00000F00BF8002801D0C046C0460020C04611
:1001D000C046FFF77FFF00F002F80120704700F0F3
:1001E00001B8FEE70746384600F002F8FBE70000DA
:1001F00080B5C046C046024A11001820ABBEFBE7DE
:1002000026000200C046C046C046C046FFF7D8FFE1
:0400000508000205E8
:00000001FF
